:020000040800F2
:10000000E00900203D0200084D2100086D1A00089B
:1000100049210008A5070008252400080000000069
:100020000000000000000000000000005521000852
:10003000B5080008000000005121000859210008FF
:10004000570200085702000857020008570200082C
:10005000570200085702000857020008570200081C
:10006000570200085702000857020008570200080C
:1000700057020008570200085702000857020008FC
:1000800057020008570200085702000857020008EC
:10009000A907000857020008B50700085702000822
:1000A00057020008570200085702000857020008CC
:1000B00057020008570200085702000857020008BC
:1000C00057020008570200085702000857020008AC
:1000D000570200085702000857020008570200089C
:1000E000570200085702000857020008570200088C
:1000F00057020008A1220008570200085702000812
:10010000570200085702000857020008570200086B
:10011000570200085702000857020008570200085B
:10012000570200085702000857020008570200084B
:10013000570200085702000857020008570200083B
:100140009D08000857020008A90800085702000887
:10015000570200085702000857020008570200081B
:10016000570200085702000857020008570200080B
:10017000570200085702000857020008000000005C
:10018000570200085702000800F002F800F047F894
:100190000AA090E8000C82448344AAF10107DA45E2
:1001A00001D100F03CF8AFF2090EBAE80F0013F0ED
:1001B000010F18BFFB1A43F0010318470C2400007D
:1001C0002C240000103A24BF78C878C1FAD852070E
:1001D00024BF30C830C144BF04680C6070470000C1
:1001E0000023002400250026103A28BF78C1FBD840
:1001F000520728BF30C148BF0B607047752900F017
:100200002781782900F06081632900F05282002064
:1002100070471FB502F088F91FBD10B510BD00F082
:1002200086FA1146FFF7F5FF02F03AF900F0A4FA5A
:1002300003B4FFF7F2FF03BC00F0ACFA09488047B3
:1002400009480047FEE7FEE7FEE7FEE7FEE7FEE7B8
:10025000FEE7FEE7FEE7FEE704480549054A064BD0
:10026000704700008D22000889010008E00100208D
:10027000E0090020E0040020E004002053EA020C22
:1002800000F069802DE9F04B4FF00006002B1FBFF6
:10029000B3FA83F503FA05F424FA05F65E4012BFBB
:1002A0001643B2FA82F502FA05F4C5F120051EBF25
:1002B00022FA05FC44EA0C04203556EA044C4FEAC5
:1002C000144418BF641C4FF000084FF0000990421E
:1002D00071EB030C39D3002919BFB1FA81F701FA88
:1002E00007F6B0FA80F700FA07F6C7F120071EBF3D
:1002F00020FA07FC46EA0C062037B6FBF4FCA7EB15
:100300000507103F07F01F0BCBF120062CFA06F66D
:100310000CFA0BFB44BFB3460026202FA4BF5E4659
:100320004FF0000B5BEA060C08BF4FF0010B19EB16
:100330000B0948EB0608ABFB027C06FB02CC0BFB6F
:1003400003CCC01B71EB0C01C1E70B4602464146D2
:100350004846BDE8F08B13B5084318BF4FF0FF3097
:100360000146AFF30080BDE81C4070470FB41CB5D8
:10037000074B06AA7B4469460090059800F077F980
:100380000020694600F086F91CBC5DF814FB0000F3
:100390001D0300002DE9F0410E46044600202062B6
:1003A0002046E168884730B3252805D0D4E90121EB
:1003B0009047206A401CF2E7E16820460027884702
:1003C000050018D0A5F14100192802D820354FF4B6
:1003D00000673246294620462760FFF70FFF40B1ED
:1003E000012804D0F61D26F007060836D8E7361D8A
:1003F000D6E72846DAE7206ABDE8F08170B50C46FA
:100400000546012A05D02878800600D5EA69002330
:1004100002E0012305E05B1C934202D2E05C00286D
:10042000F9D1A869E618C01AA861286A1844286298
:100430002846AFF3008004E0D5E9012114F8010B50
:100440009047B442F8D32846AFF3008070BD000057
:100450002DE9F0410646002410687529314616A59D
:1004600010D0AFF30080002802DA404213A507E065
:1004700031688A0701D512A502E0490704D511A504
:10048000012401E0AFF3008000210A2206F12407D5
:1004900009E0B0FBF2FCB0FBF2F302FB1C003030D1
:1004A00078541846491C0028F3D123462A46304682
:1004B000BDE8F04100F07CB8000000002D00000015
:1004C0002B0000002000000070B504460D462146B8
:1004D0001068AFF300802188090502D50F4A7A44DD
:1004E00002E00E4A7A440E32002104F1240305E0B2
:1004F00000F00F060009965D5E54491C0028F7D1F4
:1005000020780023000704D5702D02D009B1022302
:1005100011322046BDE8704000F04AB8602000006B
:10052000032A40F2308010F0030C00F0158011F81F
:10053000013BBCF1020F624498BF11F801CB00F8F7
:10054000013B38BF11F8013BA2F1040298BF00F84B
:1005500001CB38BF00F8013B11F0030300F0B58078
:10056000083AC0F0088051F8043B083A51F804CB2F
:10057000A0E80810F5E7121D5CBF51F8043B40F8F5
:10058000043BAFF30080D20724BF11F8013B11F800
:1005900001CB48BF11F8012B24BF00F8013B00F844
:1005A00001CB48BF00F8012B704770477047704778
:1005B0002DE9F0470D4699469246044600F124087D
:1005C0000168880604D5E06921F01001216000E08F
:1005D0000120A84201DD471B00E00027A1697A192C
:1005E00002EB0900081AA0612078C00602D4204658
:1005F000AFF30080002608E0D4E901211AF80600D4
:100600009047206A401C761C20624E45F4DB20781F
:10061000C0060AD52046AFF3008006E0D4E90121E8
:1006200030209047206A401C2062381EA7F1010745
:10063000F4DC07E0D4E9012118F805009047206AAE
:10064000401C2062281EA5F10105F3DC2046AFF313
:1006500000802078000602D50220BDE8F087012046
:10066000FBE7000001694A1C02610878704700B589
:100670008FB0CDE901310021059105497944CDE9DB
:10068000031011466846FFF785FE0FB000BD00005D
:10069000E5FFFFFF0A6802F8010B0A60704710B51A
:1006A000436913B1AFF3008001E0FFF7A7FE01201B
:1006B00010BD127800F124010A7000224A70012254
:1006C000EDE711684FF0FF32E9E710B5203AC0F0CE
:1006D0000B80B1E81850A0E81850B1E81850A0E815
:1006E0001850203ABFF4F5AF5FEA027C24BFB1E8AE
:1006F0001850A0E8185044BF18C918C0BDE81040F1
:100700005FEA827C24BF51F8043B40F8043B08BFF9
:100710007047D20728BF31F8023B48BF11F8012BC0
:1007200028BF20F8023B48BF00F8012B70477546F0
:1007300000F02CF8AE4605006946534620F007004D
:10074000854618B020B5FFF787FDBDE820404FF083
:1007500000064FF000074FF000084FF0000BAC46CA
:10076000ACE8C009ACE8C009ACE8C009ACE8C00915
:1007700021F007018D46704710B50446AFF30080A5
:100780002046BDE81040FFF753BD00000048704709
:100790001000002001491820ABBEFEE72600020031
:1007A00070470000FEE7000040F2D000C2F20000F7
:1007B00000F04EBA40F2D000C2F2000000F048BA99
:1007C000F0B583B040F61846C4F20206306840F235
:1007D000700440F4804040F2D0053060C2F2000462
:1007E00040F20A20002102224FF48037C2F20005B5
:1007F000C4E90401C4E90612216284F8241000BF90
:10080000284600F011FA013F01D00028F8D07FB14E
:1008100046F20840C4F20000016849011AD4016898
:10082000090119D40068C00018D5022015E000BFE6
:1008300040F22414C2F2000442F2B451C0F60001A6
:1008400020461322FFF76CFE204601F0CDFD03B0D9
:10085000F0BD00BF002000E00120206040F2D00089
:1008600004F11001C2F2000001AA234600F042F890
:1008700070B140F22414C2F2000442F2A0510246C8
:10088000C0F600012046FFF771FD204601F0ACFDE7
:10089000306840F08040306003B0F0BD40F2F800B6
:1008A000C2F2000000F0D4B940F2F800C2F2000039
:1008B00000F0CEB970470000EFF3108072B600BFB1
:1008C000FEE7000090F82020013A012A08D80068CD
:1008D00000F114020020136819431160704700BF33
:1008E00000F1240201204FF48021136819431160A4
:1008F0007047000010B590F820E0D0F800C0AEF1CD
:10090000010EBEF1010FDCF808E011D81EF0E05F27
:1009100018D0CEF3016EBEF1030F1DD100F12401FA
:1009200001204FF400020B681A430A6010BD00BF9B
:1009300000F1240101204FF480220B681A430A6061
:1009400010BD00BF00F1240101204FF400120B681C
:100950001A430A6010BD00BF012000FA0EF01860B3
:10096000886818B14B6840EAC30001E00868400598
:10097000D1E9033403430CEB0E10C0F88031C0F80A
:100980008441097D012905D100F5C2710B6843F44A
:1009900080730B605168C0F88C11126800F5C0714B
:1009A000C0F88821002001220B681A430A6010BD9C
:1009B000B0B590F82020013A012A2FD846F2006005
:1009C000C4F20000026842F001020260026822F4F0
:1009D0007C520260D1F814E0CC694A6A0368012CA9
:1009E00043EA022202600EF01F024FF0010303FAF5
:1009F00002F2C3696FEA020C23EA0203C36113D057
:100A00002CBBC36803EA0C03C360CB688C8844EA40
:100A1000034300EBCE0423640B4611E0416A41F42A
:100A2000802141620120B0BDC3681343C3600B68DD
:100A30008C8844EA034300EBCE04236401F10C03E9
:100A40008C681B8843EA044300EBCE04636443686C
:100A50008D6943EA0204D1F810E0096A002D08BF4D
:100A600003EA0C0444604369BEF1000F43EA020448
:100A700008BF03EA0C040129446102D1C169114392
:100A8000C161016821F0010101600020B0BD0000DA
:100A9000B0B540F2D004C2F20004204600F032F8B3
:100AA00058B140F22415C2F2000502460DA12846B5
:100AB000FFF75CFC284601F097FC04F1280000F0E9
:100AC00021F8002808BFB0BD40F22414C2F200048F
:100AD000024608A12046FFF749FC2046BDE8B04089
:100AE00001F082BC43414E315F4552524F523D2589
:100AF000780D0A0043414E325F4552524F523D2518
:100B0000780D0A00406A704710B590F82040013C0B
:100B1000012C71D8D0F800C0002977D0DCF8104043
:100B2000A40777D00CEB011CDCF8B0410CF5D87EA3
:100B300014F004049460DCF8B04119BFE408546078
:100B4000640D1460DEF80040002904F00204D46053
:100B5000DCF8B44104F00F041461DCF8B441C4F3D0
:100B600007249461DCF8B4414FEA14445461DCF882
:100B7000B8211A70026802EB0112D2F8B8214FEACC
:100B800012225A70026802EB0112D2F8B8214FEA21
:100B900012429A70026802EB0112D2F8B8214FEAB1
:100BA0001262DA70026802EB0112D2F8BC211A71EB
:100BB000026802EB0112D2F8BC214FEA12225A71EC
:100BC000026802EB0112D2F8BC214FEA12429A717C
:100BD000026802EB0112D2F8BC214FEA1262DA710C
:100BE000006814BF00F1100100F10C010020202268
:100BF0000B681A430A6010BD00F1240101204FF474
:100C000080220B681A430A6010BD00BFDCF80C405C
:100C1000A40787D100F1240101204FF400120B68D2
:100C20001A430A6010BD000090F820100139012914
:100C300084BF002070470068816882688068C1F3C3
:100C40008061C2F3C0621144C0F300700844704771
:100C50002DE9F04F81B0044600684669D0F8049051
:100C60008768D0F80CB0D0F810A0D0F81880F10741
:100C700004D1002530071DD424E000BFF90710D0AF
:100C80000121BA07816009D4780700F1AF803807E5
:100C900000F1B680204600F065FB02E0204600F03F
:100CA00063FB0025F80500F18780F80300F1B180AF
:100CB000300707D51BF0100004D0206845F40075FC
:100CC0001021C160700708D51BF0080005D020680E
:100CD0000821C160204600F0FBF9B00706D5206866
:100CE000C068800702D0204600F00EFA700607D5D3
:100CF0001AF0100004D0206845F4806510210161CD
:100D0000B00608D51AF0080005D020680821016156
:100D1000204600F065FAF00606D5206800698007D5
:100D200002D0204600F05EFAB00308D519F010009A
:100D300005D0206810214160204600F0E3FAF0035E
:100D400008D519F0080005D0206808214160204628
:100D500000F014FB300440F19B805FEA497040F1E1
:100D6000948006F4807008EA102028435FEA8871B6
:100D7000014648BF41F00201B20558BF01465FEA93
:100D800048700D4648BF45F00405700558BF0D4634
:100D9000300540F17A8018F0700000F0768010384D
:100DA000000905286CD8DFE800F003595D6165692A
:100DB00045F0080564E000BF20684FF48071BA0573
:100DC00081600BD4780515D438051DD4204600F079
:100DD000CDFAF8037FF56CAF1BE000BF204600F0B2
:100DE000C7FAF8037FF564AF13E000BF4FF4006566
:100DF00058E700BF05F50055F8037FF559AF08E047
:100E00004FF480554EE700BF05F58045F8037FF5A8
:100E10004FAF20684FF48031BA0381600AD4780361
:100E200010D4380314D4204600F0A4FA30073FF55C
:100E300041AF47E7204600F09FFA30073FF53AAF51
:100E400040E700BF05F5004530073FF533AF39E710
:100E500005F5803530073FF52DAF33E745F0100538
:100E60000EE000BF45F020050AE000BF45F0400558
:100E700006E000BF45F0800502E000BF45F4807544
:100E80002068816921F0700181612068042141603E
:100E900055B1606A40EA05012046616201B0BDE8D3
:100EA000F04FFFF7F5BD00BF01B0BDE8F08F0000C7
:100EB000B0B5C8B1044690F8200010B9204600F043
:100EC00071F82068016841F00101016000F036FB13
:100ED000054600BF20684168C90707D100F02EFB16
:100EE000401B0B28F6D312E00120B0BD016821F0B1
:100EF0000201016000F022FB054600BF2068416846
:100F000089070DD500F01AFB401B0B28F6D3606A49
:100F1000052140F400306062012084F82010B0BD4B
:100F2000217E0268012922F0800208BF803202601F
:100F3000617E0268012922F0400208BF403202604F
:100F4000A17E0268012922F0200208BF203202603F
:100F5000E17E0268012922F0100218BF10320260FF
:100F6000217F0268012922F0080208BF08320260CE
:100F7000617F0268012922F0040208BF0432026086
:100F8000D4E901C2D4E9033561691A432A43114304
:100F9000ACF101021143C16100200121606284F8BB
:100FA0002010B0BDB0B586B0006846F60002C4F2AD
:100FB000000200219042CDE90411CDE90211019116
:100FC00030D046F20041C4F2000188427DD140F2A7
:100FD0002011C2F200010A6843F64000C4F2020088
:100FE000531C0B6052B900210091016841F000715F
:100FF0000160016801F000710091009900210091E9
:1010000050F8101C162441F0020140F8101C50F852
:10101000100C142500F00200009000984FF440706E
:1010200033E000BF43F64000C4F2020000910168C3
:1010300041F080610160016801F0806100910099D8
:1010400040F22011C2F200010A68531C0B6052B931
:1010500000210091016841F000710160016801F018
:101060000071009100990021009150F8101C422459
:1010700041F0020140F8101C50F8100C402500F01F
:101080000200009000984FF440500190022002901E
:1010900000200390032004900920059040F20040B6
:1010A000C4F2020001A900F06BF9284600210022D9
:1010B00000F0FEFA284600F0EBFA2046002100225C
:1010C00000F0F6FA204600F0E3FA06B0B0BD0000EA
:1010D00040F2241046F67541C2F20000C0F26C01E5
:1010E000C0F80B1045F63071C7F24651816046F6E4
:1010F0004611C6F66671416044F24311C5F64E7161
:10110000016001F071B900002DE9F04387B040F2B1
:101110007007C2F2000740F2D0083C1DC2F200087E
:1011200007F12802404600212346FFF7EDFC00BBF3
:101130007879FE79B9793D7A8DE8430040F224163A
:10114000BA6A3B7997F80B9003A8C2F2000642F204
:10115000825197F809C097F80AE080E82050C0F65D
:1011600000013046CDF81890FFF700F9304601F045
:101170003BF908F1280007F1440200212346FFF75C
:10118000C3FC18B107B0BDE8F08300BF3D7A7C7A9C
:101190007879B979CDE9035440F22414BA6A3B79DD
:1011A000FE7997F80AC0FF7A8DE84300C2F2000486
:1011B00042F28251C0F600012046CDF814C00697D5
:1011C000FFF7D4F8204601F00FF940F61840C4F2BA
:1011D0000200016841F08051016007B0BDE8F08372
:1011E000704700002DE9F04387B040F27007C2F26B
:1011F000000740F2D0093C1DC2F2000907F12802A5
:10120000484601212346FFF77FFC50BB40F61848B3
:10121000C4F20208D8F8000040F48050C8F800007A
:10122000B8793E7AF9798DE8430040F224163A798C
:101230007B797D7A97F80AC097F80BE0C2F2000636
:1012400024A13046CDE9035CCDF814E0FFF78EF819
:10125000304601F0C9F8D8F8000040F08050C8F8D6
:10126000000009F1280007F1440201212346FFF79D
:101270004BFC18B107B0BDE8F08300BF40F618483A
:10128000C4F20208D8F8000040F48050C8F800000A
:101290007C7ABD7AB879CDE9034540F224143A79D5
:1012A0007B79F9793E7AFF7AC2F200048DE8430037
:1012B0000EA120460597FFF759F8204601F094F853
:1012C000D8F8000040F08050C8F8000007B0BDE832
:1012D000F08300BF63616E313A2578257825782543
:1012E0007825782578257825780D0A0063616E3297
:1012F0003A25782578257825782578257825782544
:10130000780D0A0070470000B0B5044690F8200040
:1013100001281DD1022084F820002068016821F0F6
:101320000101016000F00AF9054600BF206840682D
:10133000C00713D000F002F9401B0B28F6D3606AF7
:1013400040F400306062052084F820000120B0BD28
:10135000606A40F4002060620120B0BD002060623D
:10136000B0BD0000704700007047000070470000EB
:101370007047000070470000704700007047000091
:101380002DE9F04F82B000F13E4241F6004502F1F6
:10139000FF77C4F2020508224FEAB726A84208BF29
:1013A0000722072E38BF4FEAB7224FF0010E002464
:1013B00000274FF00008009208E000BF023708F154
:1013C0000108202F04F1040400F0B4800E680EFA26
:1013D00008F916EA090FF1D0D1F804A00AF0030BBE
:1013E000ABF10106012E19D80322866802FA07FE26
:1013F000CA6826EA0E06BA40324382604268CAF3DF
:10140000001522EA090205FA08F54FEA480C6FEACE
:101410000E064FF0010E2A4342600BE00322BA4051
:10142000D643BBF1030FBC4604D1BC464FF0030BBF
:1014300024E000BFC2688D68324005FA0CF52A43EB
:10144000BBF1020FC26019D16FF0030202EA580229
:10145000024404F01C030F25D2F820E005FA03FA39
:101460000D692EEA0A0E05FA03F343EA0E0313622E
:10147000D1F804A04FF0010E0AF0030B02680BFA3A
:101480000CF332401A431AF4403F026096D0002217
:1014900043F644030192C4F202031A6843F6004C77
:1014A00042F480421A601A68C4F2010C02F48042CD
:1014B0000192019A28F003024FF6084A6244CFF6DF
:1014C000FF7A52F80A3004F00C060F25B540AB4302
:1014D000009D05FA06F6334342F80A30DCF8002096
:1014E0004B6842EA0906DD0358BF22EA0906CCF838
:1014F0000060DCF804209D0342EA090658BF22EA96
:101500000906CCF80460DCF80820DD0242EA09068E
:1015100043F60C4558BF22EA0906CCF80860C4F22D
:1015200001052A689B0242EA090658BF22EA090619
:101530002E6043E702B0BDE8F08F000040F2DC10FF
:10154000C2F200000068704740F2000040F2DC1177
:10155000C2F20000C2F2000100780A68104408607C
:101560007047000080B543F60040C4F202000168F5
:1015700041F400710160016841F48061016001681B
:1015800041F480710160032000F0BEF80F2000F0EC
:1015900005F800F061F8002080BD000070B586B04D
:1015A000002543F640010195C4F202010A68044691
:1015B00042F480720A60096801A801F48071019107
:1015C0000199694600F0B0F8049E002E18BF01266C
:1015D00000F0CAF84DF68361B040C4F21B31A0FBA5
:1015E00001014FF0FF3000EB914140F2941042F2C4
:1015F0000002C2F20000C4F2000240F2E733C0E988
:101600000021C0E902530561856100F0C5F8054677
:1016100010B1284606B070BD40F29410C2F200002E
:1016200000F004F905460028F3D12D2000F030F831
:101630000F2C0DD82D2021460022002500F038F86F
:1016400040F20400C2F200000460284606B070BDFB
:101650000125284606B070BD82B0002043F6400147
:101660000190C4F202014A6842F480424A604A682A
:1016700002F480420192019A0090086840F0805084
:101680000860086800F080500090009802B0704731
:10169000002848BF704700F01F01012202FA01F143
:1016A0004EF200124009CEF2000242F820107047BC
:1016B00010B54EF60C5CCEF2000CDCF80030C3F333
:1016C000022E8EF00704042C28BF0424BEF103036D
:1016D0004FF0FF3E0EFA04F438BF0023A1439940B7
:1016E0000EFA03F39A4300F00F03043B11436344E3
:1016F00009010C3300F16042B0F1FF3FC8BF02F5B1
:101700006443197010BD00004EF60C51CEF200017A
:101710000A684FF6FF031A4060F30A2242F0806025
:1017200040F0FD70086070470F22026043F6080227
:10173000C4F20202136803F003034360136803F06A
:10174000F0038360136803F4E053C360D2F800C071
:101750004FF4E05303EADC030361D2F8F80300F02E
:10176000070008607047000040F2080043F60801D7
:10177000C2F20000C4F202010068096842F27A5223
:10178000C1F38221C0F60002515CC84070470000DE
:101790007047000070470000002804BF0120704718
:1017A00010B5044690F83D0028B9002084F83C00AC
:1017B000204600F01FF8022084F83D002068211D1B
:1017C00000F074FD012084F8460084F83E0084F89F
:1017D0003F0084F8400084F8410084F8420084F817
:1017E000430084F8440084F8450084F83D0000205C
:1017F00010BD000081B0006841F60041C4F2000154
:10180000884201D001B070470020009043F64000AC
:10181000C4F20200016841F080010160006800F03C
:1018200080000090009801B07047000090F83D10D3
:1018300001291CBF01207047022180F83D1000687B
:1018400041F2FF72C168C4F20002904241F001010E
:10185000C1600DDC40F2FF71C4F20001884215DC6A
:10186000B0F1804F2AD040F20041C4F2000123E0E1
:1018700040F2FF31C4F20101884213DC41F600015D
:10188000C4F20001884219D0002113E040F60001A3
:10189000C4F20001884211D040F60041C4F20001B8
:1018A0000AE000BF44F20001C4F20101884205D001
:1018B00040F20041C4F20101884206D1816801F082
:1018C0000701062904BF00207047016841F00101AB
:1018D00001600020704700007047000010B50168EB
:1018E00004460869800744BFC8685FEA807039D43D
:1018F0000869400744BFC8685FEA40703ED4086981
:10190000000744BFC8685FEA007045D40869C00694
:1019100044BFC8685FEAC0604AD40869C0071CBFFA
:10192000C8685FEAC07051D10869000644BFC86842
:101930005FEA006052D40869400644BFC8685FEAA5
:10194000406053D40869800646BFC8685FEA80607B
:1019500010BD6FF0200220460A61BDE81040FFF77D
:1019600019BF00BF6FF0020008610120207788696D
:10197000800743D02046FFF7AFFF45E06FF004003B
:10198000086102202077886910F4407F40D020460B
:10199000FFF7A2FF42E000BF6FF0080008610420DB
:1019A0002077C86980073DD02046FFF795FF3FE0CC
:1019B0006FF01000086108202077C86910F4407F9C
:1019C0003AD02046FFF788FF3CE000BF6FF00100EF
:1019D0000861204600F03EF82168A5E76FF080001E
:1019E00008612046FFF7D4FE2168A4E76FF04000AD
:1019F0000861204600F038F82168A3E7204600F08F
:101A000025F8204600F024F82168002020776FE7B1
:101A1000204600F01BF8204600F01AF8216800204C
:101A200020776CE7204600F011F8204600F010F80F
:101A300021680020207769E7204600F007F820465B
:101A400000F006F821680020207766E77047000064
:101A500070470000006842F20001C4F200018842B1
:101A600008BFFFF771BD704770470000FEE7000038
:101A7000014600790A68C8B1002A04BF00207047F7
:101A8000487943F6004C0228C4F2010C1AD0012810
:101A90001CD038BBDCF804009043CCF80400DCF820
:101AA00000001043CCF800001AE000BF43F60040ED
:101AB000C4F20100016891430160416891434160B3
:101AC000002019E0DCF80000104302E0DCF8000020
:101AD0009043CCF80000DCF804001043CCF804007C
:101AE000002000E001208979032984BF012070478C
:101AF000DFE801F002041014704700BFDCF80C109E
:101B00009143CCF80C10DCF808101143CCF8081005
:101B1000704700BFDCF80810914302E0DCF80810C1
:101B20001143CCF80810DCF80C101143CCF80C1061
:101B3000704700002DE9F04F0E6896FAA6F2B2FA4F
:101B400082F236FA02F365D04FF001084FF0030C31
:101B50000CE000BFD1E900630768AB4007EA0A0761
:101B60003B430360013236FA02F353D008FA02F322
:101B700016EA0304F6D0D1F804E0AEF10103022B1B
:101B80001CD294FAA4F5B5FA85F6D0F80890750041
:101B9000D1E902AB0CFA05F329EA03090AFA05F7C1
:101BA00047EA0907876047686FEA030A27EA0409DA
:101BB0000BFB04F747EA0907476008E094FAA4F32F
:101BC000B3FA83F675000CFA05F36FEA030A0F699E
:101BD000C368AF4003EA0A033B43BEF1020FC36090
:101BE000B8D1E3B2240AD1F814E094FAA4F4002B9B
:101BF00008BFB4FA84F64FF0200308BF2423C4586A
:101C0000B6000F27B740BC430EFA06F72743C7506C
:101C1000A0E700BF0020BDE8F08F000080B543F6CC
:101C2000040EC4F2020EDEF8042002F00C0342F2AD
:101C30000042082BC0F2F40206D0042B22D141F25C
:101C40000022C0F27A021DE0DEF80030DEF800C0AB
:101C50005B0241F20023C0F27A0358BF13460CF036
:101C60003F0CDEF80020B3FBFCFCDEF80030C2F3D2
:101C7000881202FB0CFCC3F30143022202EB430275
:101C8000BCFBF2F20260DEF8043042F26A51C3F3A8
:101C90000313C0F60001C95C42F27A5322FA01F143
:101CA0004160DEF80420C0F60003C2F382229A5C91
:101CB00021FA02F28260DEF80420C2F342329A5C1A
:101CC000D140C16080BD000040F20801C2F20001B5
:101CD0000860704770B584B00446C068800400F1A5
:101CE0007F80E0680D4649F20C618843D5E9011E0A
:101CF00005F10C0C9CE848100843AA6918433043CE
:101D00001043E06020696E4620F4405040EA0E0027
:101D10002061606920F4407040EA0C006061304648
:101D2000FFF77CFF44F6FF70C4F2000084424FF0DE
:101D3000010013DC44F20041C4F200018C4225D0C2
:101D400044F60001C4F200018C421FD044F6004169
:101D5000C4F200018C4219D046E000BF45F20001F8
:101D6000C4F200018C4211D041F20041C4F20101E1
:101D70008C4205D041F20001C4F201018C4233D102
:101D800006F10C00006828B92AE000BF06F108003F
:101D9000006828B32B681BB3A9691922B1F5004F5D
:101DA000A0FB020122D15A00DB0FFEF767FA48F2CE
:101DB0001F51C5F2EB11A0FB01235A096FF0630319
:101DC00002FB0300322303EBC000A0FB01014FF430
:101DD000F87000EA111000EB0210C1F3421120E08C
:101DE000012004B070BD00BF04B070BD9A009B0F0D
:101DF000FEF744FA48F21F51C5F2EB11A0FB012394
:101E00005A096FF0630302FB0300322303EB001057
:101E1000A0FB0101F02000EA511000EB0210C1F319
:101E2000431180B20844A060002004B070BD0000DF
:101E300010B58AB040F2D00046F20041C2F2000074
:101E4000C4F2000100244FF4402E4FF4801C4FF4E4
:101E50008073152280E81600C0E9034EC0E905C36F
:101E60008383FFF725F8002818BFFEF725FD012022
:101E7000CDE9070040F2D000C2F2000069460694A6
:101E8000CDE90444CDE90244CDE90044FEF790FDDC
:101E900068B140F22414C2F200040CA120461922B9
:101EA000FEF73EFB204600F09FFAFEF705FD40F2EC
:101EB000D004C2F200042046FFF726FA204648F676
:101EC0000241FEF7FFFC0AB010BD00BF696E6974E5
:101ED0005F43414E315F66696C7465725F65727213
:101EE0006F720D0A00000000F0B58BB040F2D00711
:101EF000C2F2000746F60001C4F20001384640F87D
:101F0000281F0C2100F1040C4FF0404200254FF433
:101F100020234FF480768CE8260000F110014FF466
:101F2000801458C18683FEF7C3FF002818BFFEF750
:101F3000C3FC0E20012107F12804CDE90550CDE9AD
:101F400008110A9001A920460795CDE90155CDE970
:101F50000355FEF72DFD68B140F22415C2F20005CD
:101F600009A128461922FEF7DBFA284600F03CFAC0
:101F7000FEF7A2FC2046FFF7C7F9204648F60241CB
:101F8000FEF7A0FC0BB0F0BD696E69745F43414E73
:101F9000325F66696C7465725F6572726F720D0A8A
:101FA00000000000B0B58AB04FF001100790012585
:101FB000002443F630000695CDE90444CDE90244FF
:101FC000CDE90044C4F20200016841F080010160E3
:101FD000016801F0800109910999016841F001014E
:101FE0000160016801F0010109910999016841F05E
:101FF00002010160016801F002010991099901687B
:1020000041F00801016000684FF0704100F00800E5
:102010000990099840F61840C4F20200016043F6A6
:102020000800C4F20100016821F00F01016006A858
:10203000FFF71EFD0020C4F20200C16821F0030179
:10204000C160016821F0030101604FF47041CDE9E6
:10205000001500F540606946CDE902440494FFF79D
:1020600069FD0AB0B0BD000080B540F24C1041F6E9
:102070000041C2F20000C4F2000100224FF6FF73DB
:10208000C0E90012C0E9022302618261FFF784FB0C
:10209000002808BF80BDBDE88040FEF70DBC0000F1
:1020A000B0B58EB0002443F630000D94CDE90B445A
:1020B000CDE90944CDE90744C4F20200016944F6C0
:1020C0000C0541F4802101610169C4F2000501F4AD
:1020D000802101910199016841F0020101600068CD
:1020E00001A900F00200019001984FF440600190B6
:1020F000022002900320CDE903040720069005F595
:10210000DC3000F57D700594FFF714FD4FF4E130ED
:10211000CDE907040C20CDE90B04A5F10C0007A9BB
:10212000CDE909440D94FFF7D5FD686820F490408F
:102130006860A86820F02A00A860286840F4005071
:1021400028600EB0B0BD0000FEE70000FEE7000012
:1021500070470000704700007047000080B543F6EC
:102160000000C4F20200D0F80014022262F302015F
:10217000C0F80014D0F8001401F00701022911D0B2
:10218000D0F8001401F0070102290BD0D0F8001498
:1021900001F00701022905D0D0F8001401F0070171
:1021A0000229E7D147F20001C4F200010A6842F4B3
:1021B00080420A60016841F480310160016889034E
:1021C0005FBF01685FEA813101685FEA813102D453
:1021D00001688903F2D5416848F20002CFF6BF7268
:1021E000114045F20842C0F240021143416041688B
:1021F000012262F311414160016841F08071016088
:10220000016889015FBF01685FEA811101685FEAC7
:10221000811102D401688901F2D58168042221F07C
:10222000F0018160816862F38C2181608168022203
:1022300021F460418160816862F30101816000BF27
:10224000816801F00C0108290ED0816801F00C01B1
:10225000082909D0816801F00C01082904D081689F
:1022600001F00C010829EBD14BF60050C0F20150EF
:10227000FFF72AFD0F20FFF791F9002808BF80BD66
:10228000EFF3108072B600BFFEE700004EF68850F4
:10229000CEF20000016841F4700101607047000057
:1022A00040F29410C2F20000FFF718BB10B540F6E0
:1022B000FF3E0368C4F2000E40F2004C7045C4F2C9
:1022C000010C27DCB0F1804F31D040F20042C4F263
:1022D000000290422BD040F60002C4F2000290426D
:1022E00025D041F6FF72C4F20002904229DC70450D
:1022F0003CDCB0F1804F5FD040F20042C4F20002FB
:10230000904259D040F60002C4F20002904253D0ED
:1023100056E000BF40F60042C4F20002904206D0F0
:10232000604504D00022C4F201029042D9D14A682B
:1023300023F07003134341F6FF72C4F2000290428F
:10234000D5DD43F6FF72C4F20102904222DC42F274
:102350000002C4F2000290422ED00022C4F2010218
:10236000904229D0604527D02AE000BF40F60042C5
:10237000C4F2000290421FD041F60002C4F20002F3
:10238000904219D041F60042C4F20002904213D0AC
:1023900016E000BF44F20002C4F2010290420BD0EA
:1023A00044F60002C4F20102904205D044F2004219
:1023B000C4F20102904203D1CA6823F4407313436C
:1023C00023F080024B69D1F800E08C681A43026068
:1023D000C46240F48062C0F828E0624504BF096925
:1023E00001630121416110BD0178002908BF7047D8
:1023F00044F60002C4F2000204E000BF516010F88D
:10240000011F69B113685B065FBF13685FEA43632E
:1024100013685FEA4363F1D413685B06F2D5EDE716
:1024200070470000FEE7000043F64002C4F20202DB
:10243000136841F6104143F08003C4F200011360B9
:1024400000224A614AF20F428A614FF0FF3202EBEA
:102450004000C861486840F001004860086820F00A
:102460000100086051F8100C40F0010041F8100C18
:102470000868C00709D10868C00704BF08685FEA98
:10248000C07002D10868C007F2D051F8100C20F0DB
:10249000010041F8100C086820F001000860704746
:1024A00040F61844C4F20204FFF75CF8FFF756FE4A
:1024B000FFF778FDFFF7BCFCFFF7F2FDFFF7D4FD57
:1024C000FFF712FD16A0FFF78FFF00BF40F2DC50B0
:1024D000FFF7AAFF206840F000502060206840F419
:1024E00000402060FEF76CF940F2DC50FFF79CFFE3
:1024F00054F8040C216800044FF0004058BF4FF41A
:1025000000400843206054F8040C216880044FF018
:10251000005058BF4FF4005008432060D6E700BF7A
:1025200073746172740D0A00F1EE100A4FF6FF71B8
:10253000C0F2C03120EA010040F04070E1EE100A24
:1025400070473031323334353637383941424344BD
:10255000454640305800303132333435363738391B
:10256000616263646566403078000000000000002E
:102570000000010203040607080900000000010230
:10258000030469643A25782C206D73673A25632526
:10259000632563256325632563256325630D0A0091
:1025A00043414E315F54585F4552524F523D25755D
:1025B0000000000043414E315F54585F74696D65FF
:1025C0005F6F75740D0A0000E82500080000002008
:1025D00010000000C4010008F825000810000020C9
:1025E000D0090000E0010008010000001000000018
:0825F0000024F40000000000CB
:040000050800018965
:00000001FF
