:020000040800F2
:10000000E00900203D020008152100084D1A0008F3
:1000100011210008A5070008ED23000800000000DA
:100020000000000000000000000000001D2100088A
:10003000B108000800000000192100082121000873
:10004000570200085702000857020008570200082C
:10005000570200085702000857020008570200081C
:10006000570200085702000857020008570200080C
:1000700057020008570200085702000857020008FC
:1000800057020008570200085702000857020008EC
:10009000A907000857020008B50700085702000822
:1000A00057020008570200085702000857020008CC
:1000B00057020008570200085702000857020008BC
:1000C00057020008570200085702000857020008AC
:1000D000570200085702000857020008570200089C
:1000E000570200085702000857020008570200088C
:1000F000570200086922000857020008570200084A
:10010000570200085702000857020008570200086B
:10011000570200085702000857020008570200085B
:10012000570200085702000857020008570200084B
:10013000570200085702000857020008570200083B
:100140009908000857020008A5080008570200088F
:10015000570200085702000857020008570200081B
:10016000570200085702000857020008570200080B
:10017000570200085702000857020008000000005C
:10018000570200085702000800F002F800F047F894
:100190000AA090E8000C82448344AAF10107DA45E2
:1001A00001D100F03CF8AFF2090EBAE80F0013F0ED
:1001B000010F18BFFB1A43F001031847D0230000BA
:1001C000F0230000103A24BF78C878C1FAD852074B
:1001D00024BF30C830C144BF04680C6070470000C1
:1001E0000023002400250026103A28BF78C1FBD840
:1001F000520728BF30C148BF0B607047752900F017
:100200002781782900F06081632900F05282002064
:1002100070471FB502F06AF91FBD10B510BD00F0A0
:1002200086FA1146FFF7F5FF02F01EF900F0A4FA76
:1002300003B4FFF7F2FF03BC00F0ACFA09488047B3
:1002400009480047FEE7FEE7FEE7FEE7FEE7FEE7B8
:10025000FEE7FEE7FEE7FEE704480549054A064BD0
:10026000704700005522000889010008E0010020C5
:10027000E0090020E0040020E004002053EA020C22
:1002800000F069802DE9F04B4FF00006002B1FBFF6
:10029000B3FA83F503FA05F424FA05F65E4012BFBB
:1002A0001643B2FA82F502FA05F4C5F120051EBF25
:1002B00022FA05FC44EA0C04203556EA044C4FEAC5
:1002C000144418BF641C4FF000084FF0000990421E
:1002D00071EB030C39D3002919BFB1FA81F701FA88
:1002E00007F6B0FA80F700FA07F6C7F120071EBF3D
:1002F00020FA07FC46EA0C062037B6FBF4FCA7EB15
:100300000507103F07F01F0BCBF120062CFA06F66D
:100310000CFA0BFB44BFB3460026202FA4BF5E4659
:100320004FF0000B5BEA060C08BF4FF0010B19EB16
:100330000B0948EB0608ABFB027C06FB02CC0BFB6F
:1003400003CCC01B71EB0C01C1E70B4602464146D2
:100350004846BDE8F08B13B5084318BF4FF0FF3097
:100360000146AFF30080BDE81C4070470FB41CB5D8
:10037000074B06AA7B4469460090059800F077F980
:100380000020694600F086F91CBC5DF814FB0000F3
:100390001D0300002DE9F0410E46044600202062B6
:1003A0002046E168884730B3252805D0D4E90121EB
:1003B0009047206A401CF2E7E16820460027884702
:1003C000050018D0A5F14100192802D820354FF4B6
:1003D00000673246294620462760FFF70FFF40B1ED
:1003E000012804D0F61D26F007060836D8E7361D8A
:1003F000D6E72846DAE7206ABDE8F08170B50C46FA
:100400000546012A05D02878800600D5EA69002330
:1004100002E0012305E05B1C934202D2E05C00286D
:10042000F9D1A869E618C01AA861286A1844286298
:100430002846AFF3008004E0D5E9012114F8010B50
:100440009047B442F8D32846AFF3008070BD000057
:100450002DE9F0410646002410687529314616A59D
:1004600010D0AFF30080002802DA404213A507E065
:1004700031688A0701D512A502E0490704D511A504
:10048000012401E0AFF3008000210A2206F12407D5
:1004900009E0B0FBF2FCB0FBF2F302FB1C003030D1
:1004A00078541846491C0028F3D123462A46304682
:1004B000BDE8F04100F07CB8000000002D00000015
:1004C0002B0000002000000070B504460D462146B8
:1004D0001068AFF300802188090502D50F4A7A44DD
:1004E00002E00E4A7A440E32002104F1240305E0B2
:1004F00000F00F060009965D5E54491C0028F7D1F4
:1005000020780023000704D5702D02D009B1022302
:1005100011322046BDE8704000F04AB824200000A7
:10052000032A40F2308010F0030C00F0158011F81F
:10053000013BBCF1020F624498BF11F801CB00F8F7
:10054000013B38BF11F8013BA2F1040298BF00F84B
:1005500001CB38BF00F8013B11F0030300F0B58078
:10056000083AC0F0088051F8043B083A51F804CB2F
:10057000A0E80810F5E7121D5CBF51F8043B40F8F5
:10058000043BAFF30080D20724BF11F8013B11F800
:1005900001CB48BF11F8012B24BF00F8013B00F844
:1005A00001CB48BF00F8012B704770477047704778
:1005B0002DE9F0470D4699469246044600F124087D
:1005C0000168880604D5E06921F01001216000E08F
:1005D0000120A84201DD471B00E00027A1697A192C
:1005E00002EB0900081AA0612078C00602D4204658
:1005F000AFF30080002608E0D4E901211AF80600D4
:100600009047206A401C761C20624E45F4DB20781F
:10061000C0060AD52046AFF3008006E0D4E90121E8
:1006200030209047206A401C2062381EA7F1010745
:10063000F4DC07E0D4E9012118F805009047206AAE
:10064000401C2062281EA5F10105F3DC2046AFF313
:1006500000802078000602D50220BDE8F087012046
:10066000FBE7000001694A1C02610878704700B589
:100670008FB0CDE901310021059105497944CDE9DB
:10068000031011466846FFF785FE0FB000BD00005D
:10069000E5FFFFFF0A6802F8010B0A60704710B51A
:1006A000436913B1AFF3008001E0FFF7A7FE01201B
:1006B00010BD127800F124010A7000224A70012254
:1006C000EDE711684FF0FF32E9E710B5203AC0F0CE
:1006D0000B80B1E81850A0E81850B1E81850A0E815
:1006E0001850203ABFF4F5AF5FEA027C24BFB1E8AE
:1006F0001850A0E8185044BF18C918C0BDE81040F1
:100700005FEA827C24BF51F8043B40F8043B08BFF9
:100710007047D20728BF31F8023B48BF11F8012BC0
:1007200028BF20F8023B48BF00F8012B70477546F0
:1007300000F02CF8AE4605006946534620F007004D
:10074000854618B020B5FFF787FDBDE820404FF083
:1007500000064FF000074FF000084FF0000BAC46CA
:10076000ACE8C009ACE8C009ACE8C009ACE8C00915
:1007700021F007018D46704710B50446AFF30080A5
:100780002046BDE81040FFF753BD00000048704709
:100790001000002001491820ABBEFEE72600020031
:1007A00070470000FEE7000040F2D000C2F20000F7
:1007B00000F04EBA40F2D000C2F2000000F048BA99
:1007C00070B582B040F61840C4F20200016840F2F1
:1007D000700441F4804140F2D0050160C2F200048F
:1007E00040F20A20002102224FF48036C2F20005B6
:1007F000C4E90401C4E90612216284F8241000BF90
:10080000284600F011FA0028A6F1010002D1012EBD
:100810000646F5D170B146F20840C4F20000016806
:10082000490119D40168090118D40068C00017D51E
:10083000022014E040F22414C2F2000442F2785183
:10084000C0F6000120461322FFF76AFE204602B0E0
:10085000BDE8704001F0ACBD002000E00120206048
:1008600040F2D00004F11001C2F200006A462346B3
:1008700000F03EF870B140F22414C2F2000442F2DB
:1008800064510246C0F600012046FFF76FFD204686
:1008900001F08EFD02B070BD40F2F800C2F200001F
:1008A00000F0D6B940F2F800C2F2000000F0D0B972
:1008B00070470000EFF3108072B600BFFEE7000043
:1008C00090F82020013A012A08D8006800F11402AB
:1008D0000020136819431160704700BF00F1240223
:1008E00001204FF480211368194311607047000004
:1008F00010B590F820E0D0F800C0AEF1010EBEF1C6
:10090000010FDCF808E011D81EF0E05F18D0CEF33C
:10091000016EBEF1030F1DD100F1240101204FF43F
:1009200000020B681A430A6010BD00BF00F12401E9
:1009300001204FF480220B681A430A6010BD00BFEB
:1009400000F1240101204FF400120B681A430A60E1
:1009500010BD00BF012000FA0EF01860886828B1B1
:100960004B68CC6844EAC303034303E00868CB68E0
:1009700043EA40530CEB0E10C0F880310B69C0F80D
:100980008431097D012905D100F5C2710B6843F45A
:1009900080730B605168C0F88C11126800F5C0714B
:1009A000C0F88821002001220B681A430A6010BD9C
:1009B000B0B590F82020013A012A2FD846F2006005
:1009C000C4F20000026842F001020260026822F4F0
:1009D0007C520260D1F814E0CC694A6A0368012CA9
:1009E00043EA022202600EF01F024FF0010303FAF5
:1009F00002F2C3696FEA020C23EA0203C36113D057
:100A00002CBBC36803EA0C03C360CB688C8844EA40
:100A1000034300EBCE0423640B4611E0416A41F42A
:100A2000802141620120B0BDC3681343C3600B68DD
:100A30008C8844EA034300EBCE04236401F10C03E9
:100A40008C681B8843EA044300EBCE04636443686C
:100A50008D6943EA0204D1F810E0096A002D08BF4D
:100A600003EA0C0444604369BEF1000F43EA020448
:100A700008BF03EA0C040129446102D1C169114392
:100A8000C161016821F0010101600020B0BD0000DA
:100A9000B0B540F2D004C2F20004204600F032F8B3
:100AA00058B140F22415C2F2000502460DA12846B5
:100AB000FFF75CFC284601F07BFC04F1280000F005
:100AC00021F8002808BFB0BD40F22414C2F200048F
:100AD000024608A12046FFF749FC2046BDE8B04089
:100AE00001F066BC43414E315F4552524F523D25A5
:100AF000780D0A0043414E325F4552524F523D2518
:100B0000780D0A00406A704710B590F82040013C0B
:100B1000012C71D8D0F800C0002977D0DCF8104043
:100B2000A40777D00CEB011CDCF8B0410CF5D87EA3
:100B300014F004049460DCF8B04119BFE408546078
:100B4000640D1460DEF80040002904F00204D46053
:100B5000DCF8B44104F00F041461DCF8B441C4F3D0
:100B600007249461DCF8B4414FEA14445461DCF882
:100B7000B8211A70026802EB0112D2F8B8214FEACC
:100B800012225A70026802EB0112D2F8B8214FEA21
:100B900012429A70026802EB0112D2F8B8214FEAB1
:100BA0001262DA70026802EB0112D2F8BC211A71EB
:100BB000026802EB0112D2F8BC214FEA12225A71EC
:100BC000026802EB0112D2F8BC214FEA12429A717C
:100BD000026802EB0112D2F8BC214FEA1262DA710C
:100BE000006814BF00F1100100F10C010020202268
:100BF0000B681A430A6010BD00F1240101204FF474
:100C000080220B681A430A6010BD00BFDCF80C405C
:100C1000A40787D100F1240101204FF400120B68D2
:100C20001A430A6010BD000090F820100139012914
:100C300084BF002070470068816882688068C1F3C3
:100C40008061C2F3C0621144C0F300700844704771
:100C50002DE9F04F81B0044600684669D0F8049051
:100C60008768D0F80CB0D0F810A0D0F81880F10741
:100C700004D1002530071DD424E000BFF90710D0AF
:100C80000121BA07816009D4780700F1AF803807E5
:100C900000F1B680204600F05DFB02E0204600F047
:100CA0005BFB0025F80500F18780F80300F1B180B7
:100CB000300707D51BF0100004D0206845F40075FC
:100CC0001021C160700708D51BF0080005D020680E
:100CD0000821C160204600F0FBF9B00706D5206866
:100CE000C068800702D0204600F00EFA700607D5D3
:100CF0001AF0100004D0206845F4806510210161CD
:100D0000B00608D51AF0080005D020680821016156
:100D1000204600F06DFAF00606D5206800698007CD
:100D200002D0204600F066FAB00308D519F0100092
:100D300005D0206810214160204600F0DBFAF00366
:100D400008D519F0080005D0206808214160204628
:100D500000F00CFB300440F19B805FEA497040F1E9
:100D6000948006F4807008EA102028435FEA8871B6
:100D7000014648BF41F00201B20558BF01465FEA93
:100D800048700D4648BF45F00405700558BF0D4634
:100D9000300540F17A8018F0700000F0768010384D
:100DA000000905286CD8DFE800F003595D6165692A
:100DB00045F0080564E000BF20684FF48071BA0573
:100DC00081600BD4780515D438051DD4204600F079
:100DD000C5FAF8037FF56CAF1BE000BF204600F0BA
:100DE000BFFAF8037FF564AF13E000BF4FF400656E
:100DF00058E700BF05F50055F8037FF559AF08E047
:100E00004FF480554EE700BF05F58045F8037FF5A8
:100E10004FAF20684FF48031BA0381600AD4780361
:100E200010D4380314D4204600F09CFA30073FF564
:100E300041AF47E7204600F097FA30073FF53AAF59
:100E400040E700BF05F5004530073FF533AF39E710
:100E500005F5803530073FF52DAF33E745F0100538
:100E60000EE000BF45F020050AE000BF45F0400558
:100E700006E000BF45F0800502E000BF45F4807544
:100E80002068816921F0700181612068042141603E
:100E900055B1606A40EA05012046616201B0BDE8D3
:100EA000F04FFFF7F5BD00BF01B0BDE8F08F0000C7
:100EB000B0B5C8B1044690F8200010B9204600F043
:100EC00071F82068016841F00101016000F022FB27
:100ED000054600BF20684168C90707D100F01AFB2A
:100EE000401B0B28F6D312E00120B0BD016821F0B1
:100EF0000201016000F00EFB054600BF206841685A
:100F000089070DD500F006FB401B0B28F6D3606A5D
:100F1000052140F400306062012084F82010B0BD4B
:100F2000217E0268012922F0800208BF803202601F
:100F3000617E0268012922F0400208BF403202604F
:100F4000A17E0268012922F0200208BF203202603F
:100F5000E17E0268012922F0100218BF10320260FF
:100F6000217F0268012922F0080208BF08320260CE
:100F7000617F0268012922F0040208BF0432026086
:100F8000D4E901C2D4E9033561691A432A43114304
:100F9000ACF101021143C16100200121606284F8BB
:100FA0002010B0BDB0B586B0006846F60002C4F2AD
:100FB000000200219042CDE90411CDE90211019116
:100FC00030D046F20041C4F2000188427DD140F2A7
:100FD0002011C2F200010A6843F64000C4F2020088
:100FE000531C0B6052B900210091016841F000715F
:100FF0000160016801F000710091009900210091E9
:1010000050F8101C162441F0020140F8101C50F852
:10101000100C142500F00200009000984FF440706E
:1010200033E000BF43F64000C4F2020000910168C3
:1010300041F080610160016801F0806100910099D8
:1010400040F22011C2F200010A68531C0B6052B931
:1010500000210091016841F000710160016801F018
:101060000071009100990021009150F8101C422459
:1010700041F0020140F8101C50F8100C402500F01F
:101080000200009000984FF440500190022002901E
:1010900000200390032004900920059040F20040B6
:1010A000C4F2020001A900F063F9284600210022E1
:1010B00000F0EEFA284600F0D7FA20460021002280
:1010C00000F0E6FA204600F0CFFA06B0B0BD00000E
:1010D00040F2241046F67541C2F20000C0F26C01E5
:1010E000C0F80B1045F63071C7F24651816046F6E4
:1010F0004611C6F66671416044F24311C5F64E7161
:10110000016001F055B900002DE9F04387B040F2CD
:101110007007C2F2000740F2D0083C1DC2F200087E
:1011200007F12802404600212346FFF7EDFC40BBB3
:101130007879FE79B9793D7A8DE8430040F224163A
:10114000BA6A3B7997F80B9003A8C2F2000642F204
:10115000465197F809C097F80AE080E82050C0F699
:1011600000013046CDF81890FFF700F9304601F045
:101170001FF940F61840C4F20200016841F08041B6
:10118000016008F1280007F1440200212346FFF71F
:10119000BBFC18B107B0BDE8F08300BF3D7A7C7A94
:1011A0007879B979CDE9035440F22414BA6A3B79CD
:1011B000FE7997F80AC0FF7A8DE84300C2F2000476
:1011C00042F24651C0F600012046CDF814C0069701
:1011D000FFF7CCF8204601F0EBF840F61840C4F2D7
:1011E0000200016841F08051016007B0BDE8F08362
:1011F000704700002DE9F04186B040F27007C2F25E
:10120000000740F2D0083C1DC2F2000807F1280296
:10121000404601212346FFF777FC10BBB8793E7AA0
:10122000F9798DE8430040F224163A797B797D7A8A
:1012300097F80AC097F80BE0C2F2000621A13046E9
:10124000CDE9035CCDF814E0FFF790F8304601F0EB
:10125000AFF840F61840C4F20200016841F0804146
:10126000016008F1280007F1440201212346FFF73D
:101270004BFC18B106B0BDE8F08100BF7D7ABC7AA6
:10128000B879CDE9035440F224143A797B79F9799D
:101290003E7AFF7AC2F200048DE843000FA1204697
:1012A0000597FFF763F8204601F082F840F61840F2
:1012B000C4F20200016841F08051016006B0BDE84F
:1012C000F08100BF63616E313A2578257825782555
:1012D0007825782578257825780D0A0063616E32A7
:1012E0003A25782578257825782578257825782554
:1012F000780D0A0070470000B0B5044690F8200051
:1013000001281DD1022084F820002068016821F006
:101310000101016000F0FEF8054600BF206840684A
:10132000C00713D000F0F6F8401B0B28F6D3606A14
:1013300040F400306062052084F820000120B0BD38
:10134000606A40F4002060620120B0BD002060624D
:10135000B0BD0000704700007047000070470000FB
:1013600070470000704700007047000070470000A1
:101370002DE9F04F82B000F13E4241F6004502F106
:10138000FF77C4F20205082243F6004E4FEAB72663
:10139000A84208BF0722C4F2010E072E38BF4FEA49
:1013A000B7220125002600274FF00008009208E030
:1013B00008F101080437B8F1100F06F1020600F039
:1013C000A5800C6805FA08F914EA090FF0D0D1F8E5
:1013D00004B003220BF0030CACF10104B240012C69
:1013E0006FEA020A10D88268CC6802EA0A02B440A6
:1013F000224382604268CBF3001422EA090204FA15
:1014000008F42243426005E0BCF1030F02D14FF023
:10141000030C20E0C2688C6802EA0A02B44022434E
:10142000BCF1020FC26016D16FF0030202EA58024B
:101430000244D2F820C007F01C050F230C69AB4012
:101440002CEA030304FA05F52B431362D1F804B028
:1014500001250BF0030C02680CFA06F302EA0A02FB
:101460001A431BF4403F0260A2D0002243F644031B
:101470000192C4F202031A684FF6084C42F480420B
:101480001A601A68CFF6FF7C02F480420192019A3A
:1014900028F00302724452F80C3007F00C050F24B8
:1014A000AC40A343009C04FA05F52B4342F80C30F2
:1014B000DEF800204B6842EA0905DC0358BF22EA47
:1014C0000905CEF80050DEF804209C0342EA090525
:1014D00058BF22EA0905CEF80450DEF80820DC02E5
:1014E00042EA090543F60C4458BF22EA0905CEF842
:1014F0000850C4F2010422689B0242EA090558BF61
:1015000022EA09052560012552E700BF02B0BDE8C7
:10151000F08F000040F2DC10C2F20000006870475B
:1015200040F2000040F2DC11C2F20000C2F2000101
:1015300000780A68104408607047000080B543F6E0
:101540000040C4F20200016841F4007101600168CA
:1015500041F480610160016841F480710160032001
:1015600000F0C2F80F2000F005F800F061F800204C
:1015700080BD000070B586B0002543F6400101959E
:10158000C4F202010A68044642F480720A600968E3
:1015900001A801F4807101910199694600F0B4F845
:1015A000049E002E18BF012600F0CEF84DF6836190
:1015B000B040C4F21B31A0FB01014FF0FF3000EB43
:1015C000914140F2941042F20002C2F20000C4F2D3
:1015D000000240F2E733C0E90021C0E9025305618F
:1015E000856100F0C9F8054610B1284606B070BD07
:1015F00040F29410C2F2000000F008F905460028FD
:10160000F3D12D2000F030F80F2C0DD82D202146DD
:101610000022002500F03CF840F20400C2F2000075
:101620000460284606B070BD0125284606B070BD8E
:1016300082B0002043F640010190C4F202014A68E2
:1016400042F480424A604A6802F480420192019A60
:101650000090086840F080500860086800F08050F2
:101660000090009802B07047002848BF7047C1B290
:1016700000F01F00012202FA00F04EF20012CEF23A
:10168000000242EAD10121F0030108607047000026
:1016900010B54EF60C5CCEF2000CDCF80030C3F353
:1016A000022E8EF00704042C28BF0424BEF103038D
:1016B0004FF0FF3E0EFA04F438BF0023A1439940D7
:1016C0000EFA03F39A43114300F00F0200F1604356
:1016D0000901043A03F564436244002848BF02F15B
:1016E0000C03197010BD00004EF60C51CEF2000133
:1016F0000A684FF6FF031A4060F30A2242F0806046
:1017000040F0FD70086070470F22026043F6080247
:10171000C4F20202136803F003034360136803F08A
:10172000F0038360136803F4E053C360D2F800C091
:101730004FF4E05303EADC030361D2F8F80300F04E
:10174000070008607047000040F2080043F60801F7
:10175000C2F20000C4F202010068096842F23E527F
:10176000C1F38221C0F60002515CC84070470000FE
:101770007047000070470000002804BF0120704738
:1017800010B5044690F83D0028B9002084F83C00CC
:10179000204600F01FF8022084F83D002068211D3B
:1017A00000F068FD012084F8460084F83E0084F8CB
:1017B0003F0084F8400084F8410084F8420084F837
:1017C000430084F8440084F8450084F83D0000207C
:1017D00010BD000081B0006841F60041C4F2000174
:1017E000884201D001B070470020009043F64000CD
:1017F000C4F20200016841F080010160006800F05D
:1018000080000090009801B07047000090F83D10F3
:1018100001291CBF01207047022180F83D1000689B
:1018200041F2FF72C168C4F20002904241F001012E
:10183000C1600DDC40F2FF71C4F20001884215DC8A
:10184000B0F1804F2AD040F20041C4F2000123E001
:1018500040F2FF31C4F20101884213DC41F600017D
:10186000C4F20001884219D0002113E040F60001C3
:10187000C4F20001884211D040F60041C4F20001D8
:101880000AE000BF44F20001C4F20101884205D021
:1018900040F20041C4F20101884206D1816801F0A2
:1018A0000701062904BF00207047016841F00101CB
:1018B00001600020704700007047000010B501680B
:1018C00004460869800744BFC8685FEA807039D45D
:1018D0000869400744BFC8685FEA40703ED40869A1
:1018E000000744BFC8685FEA007045D40869C006B5
:1018F00044BFC8685FEAC0604AD40869C0071CBF1B
:10190000C8685FEAC07051D10869000644BFC86862
:101910005FEA006052D40869400644BFC8685FEAC5
:10192000406053D40869800646BFC8685FEA80609B
:1019300010BD6FF0200220460A61BDE81040FFF79D
:1019400019BF00BF6FF0020008610120207788698D
:10195000800743D02046FFF7AFFF45E06FF004005B
:10196000086102202077886910F4407F40D020462B
:10197000FFF7A2FF42E000BF6FF0080008610420FB
:101980002077C86980073DD02046FFF795FF3FE0EC
:101990006FF01000086108202077C86910F4407FBC
:1019A0003AD02046FFF788FF3CE000BF6FF001000F
:1019B0000861204600F03EF82168A5E76FF080003E
:1019C00008612046FFF7D4FE2168A4E76FF04000CD
:1019D0000861204600F038F82168A3E7204600F0AF
:1019E00025F8204600F024F82168002020776FE7D2
:1019F000204600F01BF8204600F01AF8216800206D
:101A000020776CE7204600F011F8204600F010F82F
:101A100021680020207769E7204600F007F820467B
:101A200000F006F821680020207766E77047000084
:101A300070470000006842F20001C4F200018842D1
:101A400018BF7047FFF76CBD70470000FEE700004D
:101A5000014600790A68C8B1002A04BF0020704717
:101A6000487943F6004C0228C4F2010C1AD0012830
:101A70001CD038BBDCF804009043CCF80400DCF840
:101A800000001043CCF800001AE000BF43F600400D
:101A9000C4F20100016891430160416891434160D3
:101AA000002019E0DCF80000104302E0DCF8000040
:101AB0009043CCF80000DCF804001043CCF804009C
:101AC000002000E001208979032984BF01207047AC
:101AD000DFE801F002041014704700BFDCF80C10BE
:101AE0009143CCF80C10DCF808101143CCF8081026
:101AF000704700BFDCF80810914302E0DCF80810E2
:101B00001143CCF80810DCF80C101143CCF80C1081
:101B1000704700002DE9F04F0E6896FAA6F2B2FA6F
:101B200082F236FA02F365D04FF001084FF0030C51
:101B30000CE000BFD1E900630768AB4007EA0A0781
:101B40003B430360013236FA02F353D008FA02F342
:101B500016EA0304F6D0D1F804E0AEF10103022B3B
:101B60001CD294FAA4F5B5FA85F6D0F80890750061
:101B7000D1E902AB0CFA05F329EA03090AFA05F7E1
:101B800047EA0907876047686FEA030A27EA0409FA
:101B90000BFB04F747EA0907476008E094FAA4F34F
:101BA000B3FA83F675000CFA05F36FEA030A0F69BE
:101BB000C368AF4003EA0A033B43BEF1020FC360B0
:101BC000B8D1E3B2240AD1F814E094FAA4F4002BBB
:101BD00008BFB4FA84F64FF0200308BF2423C4588A
:101BE000B6000F27B740BC430EFA06F72743C7508D
:101BF000A0E700BF0020BDE8F08F000080B543F6ED
:101C0000040EC4F2020EDEF8042002F00C0342F2CD
:101C10000042082BC0F2F40206D0042B22D141F27C
:101C20000022C0F27A021DE0DEF80030DEF800C0CB
:101C30005B0241F20023C0F27A0358BF13460CF056
:101C40003F0CDEF80020B3FBFCFCDEF80030C2F3F2
:101C5000881202FB0CFCC3F30143022202EB430295
:101C6000BCFBF2F20260DEF8043042F22E51C3F304
:101C70000313C0F60001C95C42F23E5322FA01F19F
:101C80004160DEF80420C0F60003C2F382229A5CB1
:101C900021FA02F28260DEF80420C2F342329A5C3A
:101CA000D140C16080BD000040F20801C2F20001D5
:101CB0000860704770B584B00446C068800400F1C5
:101CC0008380E0680D4649F20C618843D5E9011E26
:101CD00005F10C0C9CE848100843AA6918433043EE
:101CE0001043E06020696E4620F4405040EA0E0048
:101CF0002061606920F4407040EA0C006061304669
:101D0000FFF77CFF44F6FF70C4F2000084424FF0FE
:101D1000010013DC44F20041C4F200018C4225D0E2
:101D200044F60001C4F200018C421FD044F6004189
:101D3000C4F200018C4219D004B070BD45F200011C
:101D4000C4F200018C4211D041F20041C4F2010101
:101D50008C4205D041F20001C4F201018C42EBD16A
:101D600006F10C00006828B92EE000BF06F108005B
:101D7000006848B32B683BB3A9694FF69C761922DB
:101D8000C0F6FF76B1F5004FA0FB020120D15A004A
:101D9000DB0FFEF773FA48F21F51C5F2EB11A0FBFF
:101DA00001235A0906F1805302FB0300322303EB9F
:101DB000C000A0FB01014FF4F87000EA111000EB25
:101DC0000210C1F342111CE0012004B070BD00BF3D
:101DD0009A009B0FFEF752FA48F21F51C5F2EB1121
:101DE000A0FB01235A0902FB0600322303EB00107B
:101DF000A0FB0101F02000EA511000EB0210C1F33A
:101E000043114FF6F07210400844A060002004B067
:101E100070BD000010B58AB040F2D00046F200411B
:101E2000C2F20000C4F2000100244FF4402E4FF42F
:101E3000801C4FF48073152280E81600C0E9034E21
:101E4000C0E905C38383FFF733F8002818BFFEF706
:101E500031FD0120CDE9070040F2D000C2F20000C0
:101E600069460694CDE90444CDE90244CDE9004435
:101E7000FEF79EFD68B140F22414C2F200040CA1EA
:101E800020461922FEF74CFB204600F091FAFEF79F
:101E900011FD40F2D004C2F200042046FFF72CFAF4
:101EA000204648F60241FEF70BFD0AB010BD00BF08
:101EB000696E69745F43414E315F66696C74657227
:101EC0005F6572726F720D0A00000000F0B58BB092
:101ED00040F2D007C2F2000746F60001C4F200014A
:101EE000384640F8281F0C2100F1040C4FF0404206
:101EF00000254FF420234FF480768CE8260000F173
:101F000010014FF4801458C18683FEF7D1FF0028DA
:101F100018BFFEF7CFFC0E20012107F12804CDE900
:101F20000550CDE908110A9001A920460795CDE991
:101F30000155CDE90355FEF73BFD68B140F224158C
:101F4000C2F2000509A128461922FEF7E9FA28463F
:101F500000F02EFAFEF7AEFC2046FFF7CDF9204642
:101F600048F60241FEF7ACFC0BB0F0BD696E697437
:101F70005F43414E325F66696C7465725F65727271
:101F80006F720D0A00000000B0B58AB04FF001106A
:101F900007900125002443F6300006950594C4F20D
:101FA0000200016841F080010160016801F08001D8
:101FB00009910999016841F001010160016801F08E
:101FC000010109910999016841F00201016001686C
:101FD00001F0020109910999016841F008010160CD
:101FE00000684FF0704100F008000990099840F631
:101FF0001840C4F20200016043F60800C4F2010078
:10200000016821F00F01016006A8FFF721FD002003
:10201000C4F20200C16821F00301C160016821F02F
:10202000030101604FF47041CDE9001500F54060F7
:102030006946CDE902440494FFF76CFD0AB0B0BDD7
:1020400080B540F24C1041F60041C2F20000C4F2EB
:10205000000100224FF6FF73C0E90012C0E902231D
:1020600002618261FFF788FB002808BF80BDBDE8E0
:102070008040FEF71FBC0000B0B58EB043F63000C4
:10208000C4F20200016944F60C0441F480210161AC
:102090000169C4F2000401F48021079107990168E5
:1020A000002541F002010160006801A900F0020072
:1020B000079007984FF4406001900220029003209F
:1020C00003900720069004F5DC3000F57D70CDE923
:1020D0000455FFF71FFD4FF4E130CDE907050C2053
:1020E000CDE90B05A4F10C0007A9CDE909550D9523
:1020F000FFF7E0FD606820F490406060A06820F089
:102100002A00A060206840F4005020600EB0B0BDEE
:10211000FEE70000FEE70000704700007047000087
:102120007047000080B543F60000C4F20200D0F80A
:102130000014022262F30201C0F80014D0F8001467
:1021400001F00701022911D0D0F8001401F00701B5
:1021500002290BD0D0F8001401F00701022905D0A4
:10216000D0F8001401F007010229E7D147F200017D
:10217000C4F200010A6842F480420A60016841F436
:10218000803101600168890309D4016889035CBF5B
:1021900001685FEA813102D401688903F2D54168A0
:1021A00048F20002CFF6BF72114045F20842C0F279
:1021B0004002114341604168012262F311414160D4
:1021C000016841F0807101600168890109D40168EA
:1021D00089015CBF01685FEA811102D4016889014D
:1021E000F2D58168042221F0F0018160816862F3F8
:1021F0008C2181608168022221F4604181608168C4
:1022000062F30101816000BF816801F00C010829BF
:102210000ED0816801F00C01082909D0816801F015
:102220000C01082904D0816801F00C010829EBD1C8
:102230004BF60050C0F20150FFF736FD0F20FFF7BC
:1022400099F9002808BF80BDEFF3108072B600BF77
:10225000FEE700004EF68850CEF20000016841F41F
:10226000700101607047000040F29410C2F200005B
:10227000FFF724BB10B540F6FF3E0368C4F2000E22
:1022800040F2004C7045C4F2010C27DCB0F1804FE5
:1022900031D040F20042C4F2000290422BD040F60E
:1022A0000002C4F20002904225D041F6FF72C4F24F
:1022B0000002904229DC70453CDCB0F1804F5FD0D9
:1022C00040F20042C4F20002904259D040F60002AF
:1022D000C4F20002904253D056E000BF40F60042E4
:1022E000C4F20002904206D0604504D00022C4F23D
:1022F00001029042D9D14A6823F07003134341F69A
:10230000FF72C4F200029042D5DD43F6FF72C4F2C0
:102310000102904222DC42F20002C4F2000290422A
:102320002ED00022C4F20102904229D0604527D06D
:102330002AE000BF40F60042C4F2000290421FD0E3
:1023400041F60002C4F20002904219D041F6004268
:10235000C4F20002904213D016E000BF44F2000223
:10236000C4F2010290420BD044F60002C4F2010212
:10237000904205D044F20042C4F20102904203D1DF
:10238000CA6823F44073134323F080024B69D1F8E9
:1023900000E08C681A430260C46240F48062C0F8B6
:1023A00028E0624504BF096901630121416110BD54
:1023B0000178002908BF704744F60002C4F2000209
:1023C00004E000BF516010F8011F69B113685B069B
:1023D000F8D413685B065CBF13685FEA4363F1D40B
:1023E00013685B06F2D5EDE770470000FEE70000DA
:1023F00043F64002C4F20202136841F6104143F072
:102400008003C4F20001136000224A614AF20F42C5
:102410008A614FF0FF3202EB4000C861486840F02B
:1024200001004860086820F00100086051F8100CB5
:1024300040F0010041F8100C0868C00709D1086895
:10244000C00704BF08685FEAC07002D10868C0070F
:10245000F2D051F8100C20F0010041F8100C08687F
:1024600020F001000860704740F61844C4F20204EE
:10247000FFF764F8FFF756FEFFF786FDFFF7CAFC8B
:10248000FFF7FAFDFFF7DCFDFFF720FD15A0FFF7D2
:102490008FFF206840F0005020604FF4004000BFE4
:1024A00021680843206040F2DC50FFF7A1FF54F898
:1024B000040C216880044FF0005058BF4FF40050C6
:1024C00008432060FEF77CF940F2DC50FFF790FFF4
:1024D00054F8040C00044FF0004058BF4FF4004083
:1024E000DEE700BF73746172740D0A00F1EE100A2A
:1024F0004FF6FF71C0F2C03120EA010040F0407099
:10250000E1EE100A7047303132333435363738391E
:10251000414243444546403058003031323334352F
:102520003637383961626364656640307800000090
:102530000000000000000102030406070809000073
:1025400000000102030469643A25782C206D73674A
:102550003A25632563256325632563256325632564
:10256000630D0A0043414E315F54585F4552524F4C
:10257000523D25750000000043414E315F54585FC5
:1025800074696D655F6F75740D0A0000B0250008F1
:102590000000002010000000C4010008C025000851
:1025A00010000020D0090000E00100080000000039
:1025B00001000000100000000024F40000000000F2
:040000050800018965
:00000001FF
